:100000000C9444010C944E010C944E010C944E013E
:100010000C944E010C944E010C944E010C944E0124
:100020000C944E010C944E010C944E010C944E0114
:100030000C944E010C944E010C944E010C944E0104
:100040000C944E010C944E010C944E010C944E01F4
:100050000C944E010C944E010C944E010C944E01E4
:100060000C944E010C944E0152096AD53036A538D5
:10007000BF40A39E81F3D7FB7CE339829B2FFF8790
:10008000348E4344C4DEE9CB547B9432A6C2233D74
:10009000EE4C950B42FAC34E082EA16628D924B225
:1000A000765BA2496D8BD12572F8F6648668981646
:1000B000D4A45CCC5D65B6926C704850FDEDB9DAA5
:1000C0005E154657A78D9D8490D8AB008CBCD30A93
:1000D000F7E45805B8B34506D02C1E8FCA3F0F026F
:1000E000C1AFBD0301138A6B3A9111414F67DCEA3E
:1000F00097F2CFCEF0B4E67396AC7422E7AD3585B7
:10010000E2F937E81C75DF6E47F11A711D29C589C0
:100110006FB7620EAA18BE1BFC563E4BC6D27920A2
:100120009ADBC0FE78CD5AF41FDDA8338807C731AB
:10013000B11210592780EC5F60517FA919B54A0DA3
:100140002DE57A9F93C99CEFA0E03B4DAE2AF5B018
:10015000C8EBBB3C83539961172B047EBA77D62634
:10016000E169146355210C7D637C777BF26B6FC56D
:100170003001672BFED7AB76CA82C97DFA5947F0AA
:10018000ADD4A2AF9CA472C0B7FD9326363FF7CC86
:1001900034A5E5F171D8311504C723C31896059A23
:1001A000071280E2EB27B27509832C1A1B6E5AA046
:1001B000523BD6B329E32F8453D100ED20FCB15B31
:1001C0006ACBBE394A4C58CFD0EFAAFB434D33859A
:1001D00045F9027F503C9FA851A3408F929D38F56E
:1001E000BCB6DA2110FFF3D2CD0C13EC5F974417A5
:1001F000C4A77E3D645D197360814FDC222A90881C
:1002000046EEB814DE5E0BDBE0323A0A4906245CA7
:10021000C2D3AC629195E479E7C8376D8DD54EA90C
:100220006C56F4EA657AAE08BA78252E1CA6B4C6D8
:10023000E8DD741F4BBD8B8A703EB5664803F60E31
:10024000613557B986C11D9EE1F8981169D98E9420
:100250009B1E87E9CE5528DF8CA1890DBFE6426839
:1002600041992D0FB054BB1669C4E0D86A7B0430A5
:10027000D8CDB78070B4C55A001122334455667783
:100280008899AABBCCDDEEFF11241FBECFEFD8E0CA
:10029000DEBFCDBF0E9462090C94E8090C940000F7
:1002A000CF93DF931F92CDB7DEB7898389818823EF
:1002B0004CF48981882F90E0880F991F982F8BE14B
:1002C000892702C08981880F0F90DF91CF9108950F
:1002D000CF93DF9300D01F92CDB7DEB79B838A8385
:1002E0008A819B81FC01858589838A819B810D960A
:1002F0002A813B81F9012185FC0120838A819B8130
:1003000009962A813B81F9012581FC0120838A819C
:100310009B8105962A813B81F9012181FC01208383
:100320008A819B8101962981FC0120838A819B819E
:10033000FC01868589838A819B810E962A813B8177
:10034000F9012681FC0120838A819B8106962981FF
:10035000FC0120838A819B81FC01828589838A81BB
:100360009B810A962A813B81F9012281FC0120832D
:100370008A819B8102962981FC0120838A819B814D
:10038000FC01838189838A819B8103962A813B8139
:10039000F9012781FC0120838A819B8107962A81AC
:1003A0003B81F9012385FC0120838A819B810B9687
:1003B0002A813B81F9012785FC0120838A819B8169
:1003C0000F962981FC01208389810F900F900F9057
:1003D000DF91CF910895FF920F931F93CF93DF93F7
:1003E000CDB7DEB7A1970FB6F894DEBF0FBECDBF75
:1003F0009D8F8C8F7F8F6E8F59A348A38C8D9D8D81
:1004000080569F4F9D8F8C8F19821FC08981882FA6
:1004100090E028A139A1820F931F2981222F30E07B
:100420004E8D5F8D240F351FF90160812981222FA8
:1004300030E04C8D5D8D240F351FF901208126277A
:10044000FC01208389818F5F898389818031F0F26B
:100450008C8D9D8D40979D8F8C8F88A199A10E9436
:100460006801198221C08981882F90E028A139A1D3
:10047000820F931F2981222F30E048A159A1240F18
:10048000351FF9012081222F30E028593F4F3C834E
:100490002B832B813C81F90124912D832D81FC013B
:1004A000208389818F5F898389818031E0F281E0B7
:1004B0008A83F5C1198220C08981882F90E09E012E
:1004C000245F3F4F820F931F2981222F30E048A1E4
:1004D00059A1240F351FF90160812981222F30E0B5
:1004E0004C8D5D8D240F351FF90120812627FC01DD
:1004F000208389818F5F898389818031E8F2198225
:1005000098C18981882F90E09E01245F3F4F820F20
:10051000931FFC0140818981882F90E001969E0104
:10052000245F3F4F820F931FFC0180814827898100
:10053000882F90E002969E01245F3F4F820F931F09
:10054000FC01808148278981882F90E003969E01D5
:10055000245F3F4F820F931FFC01808184278E838D
:100560008981882F90E028A139A18901080F191FDE
:100570008981882F90E09E01245F3F4F820F931F57
:10058000FC0190818E81F92EF8268981882F90E0D8
:100590009E01245F3F4F820F931FFC0140818981A0
:1005A000882F90E001969E01245F3F4F820F931F9A
:1005B000FC01808184270E9450018F25F8018083EF
:1005C0008981882F90E0019628A139A18901080F1F
:1005D000191F8981882F90E001969E01245F3F4F6B
:1005E000820F931FFC0190818E81F92EF82689815C
:1005F000882F90E001969E01245F3F4F820F931F4A
:10060000FC0140818981882F90E002969E01245F41
:100610003F4F820F931FFC01808184270E9450016D
:100620008F25F80180838981882F90E0029628A188
:1006300039A18901080F191F8981882F90E002963E
:100640009E01245F3F4F820F931FFC0190818E819A
:10065000F92EF8268981882F90E002969E01245F6A
:100660003F4F820F931FFC0140818981882F90E0CA
:1006700003969E01245F3F4F820F931FFC018081F0
:1006800084270E9450018F25F80180838981882F5B
:1006900090E0039628A139A18901080F191F8981CB
:1006A000882F90E003969E01245F3F4F820F931F97
:1006B000FC0190818E81F92EF8268981882F90E0A7
:1006C00003969E01245F3F4F820F931FFC014081E0
:1006D0008981882F90E09E01245F3F4F820F931FF6
:1006E000FC01808184270E9450018F25F8018083BE
:1006F0008981882F90E09E01245F3F4F820F931FD6
:10070000FC0140818981882F90E002969E01245F40
:100710003F4F820F931FFC01808184270E9450016C
:100720000E9450018F838981882F90E001969E015D
:10073000245F3F4F820F931FFC0140818981882FE6
:1007400090E003969E01245F3F4F820F931FFC01B0
:10075000808184270E9450010E94500188879F81D8
:10076000888589270E9450018E838981882F90E097
:1007700028A139A1820F931F2981222F30E048A19F
:1007800059A1240F351FF90130814E812F81242773
:100790002327FC0120838981882F90E0019628A1DE
:1007A00039A1820F931F2981222F30E02F5F3F4F05
:1007B00048A159A1240F351FF90130814E812885A8
:1007C00024272327FC0120838981882F90E002962B
:1007D00028A139A1820F931F2981222F30E02E5F9B
:1007E0003F4F48A159A1240F351FF90130814E8197
:1007F0002F8124272327FC0120838981882F90E0E3
:10080000039628A139A1820F931F2981222F30E05E
:100810002D5F3F4F48A159A1240F351FF9013081A9
:100820004E81288524272327FC01208389818C5F22
:1008300089838981803108F464CE88A199A10E94BE
:100840006801198221C08981882F90E028A139A1EF
:10085000820F931F2981222F30E048A159A1240F34
:10086000351FF9012081222F30E028593F4F3A8768
:10087000298729853A85F90124912B872B85FC014D
:10088000208389818F5F898389818031E0F28C8D1B
:100890009D8D40979D8F8C8F8A818F5F8A838A81FF
:1008A0008A3008F407CE19821FC08981882F90E012
:1008B00028A139A1820F931F2981222F30E048A15E
:1008C00059A1240F351FF90160812981222F30E0C1
:1008D0004C8D5D8D240F351FF90120812627FC01E9
:1008E000208389818F5F898389818031F0F20000C4
:1008F000A1960FB6F894DEBF0FBECDBFDF91CF91AA
:100900001F910F91FF900895CF93DF931F92CDB762
:10091000DEB78983898188234CF48981882F90E010
:10092000880F991F982F8BE1892702C08981880F32
:100930000F90DF91CF910895CF93DF9300D01F9256
:10094000CDB7DEB79B838A838A819B81FC0181813D
:1009500089838A819B8101962A813B81F9012581C6
:10096000FC0120838A819B8105962A813B81F901C4
:100970002185FC0120838A819B8109962A813B8104
:10098000F9012585FC0120838A819B810D962981AF
:10099000FC0120838A819B81FC01828189838A8179
:1009A0009B8102962A813B81F9012285FC012083EB
:1009B0008A819B810A962981FC0120838A819B81FF
:1009C000FC01868189838A819B8106962A813B81ED
:1009D000F9012685FC0120838A819B810E9629815D
:1009E000FC0120838A819B81FC01878589838A8120
:1009F0009B810F962A813B81F9012385FC0120838D
:100A00008A819B810B962A813B81F9012781FC0118
:100A100020838A819B8107962A813B81F90123816A
:100A2000FC0120838A819B8103962981FC0120831C
:100A300000000F900F900F90DF91CF9108950F93CA
:100A40001F93CF93DF93CDB7DEB7A2970FB6F8947D
:100A5000DEBF0FBECDBF9E8F8D8F78A36F8F5AA341
:100A600049A3198225C08981882F90E029A13AA144
:100A7000280F391F8981882F90E04F8D58A1840F4E
:100A8000951F9C838B838B819C81FC0184918D833A
:100A90006D818D8D9E8DAC014F5F5F4F5E8F4D8F51
:100AA000FC0180818627F901808389818F5F89839A
:100AB00089818031C0F281E08A8356C1198222C0C7
:100AC0008981882F90E09E01235F3F4F820F931F03
:100AD0002981222F30E049A15AA1240F351FF901A5
:100AE0002081222F30E028593E4F3F832E832E81D4
:100AF0003F81F901249128872885FC012083898181
:100B00008F5F898389818031D8F2CE010D960E9452
:100B10009C041982FEC08981882F90E09E01235F8A
:100B20003F4F820F931FFC0140818981882F90E005
:100B300001969E01235F3F4F820F931FFC0180812E
:100B400048278981882F90E002969E01235F3F4FBE
:100B5000820F931FFC01808148278981882F90E0B4
:100B600003969E01235F3F4F820F931FFC018081FC
:100B7000842789878981882F90E029A13AA189015A
:100B8000080F191F8981882F90E09E01235F3F4F36
:100B9000820F931FFC0140818981882F90E001968C
:100BA0009E01235F3F4F820F931FFC0180818427AA
:100BB0000E948404482F8981882F90E09E01235F42
:100BC0003F4F820F931FFC018081942F98278985C6
:100BD0008927F80180838981882F90E0019629A1D7
:100BE0003AA18901080F191F8981882F90E0019689
:100BF0009E01235F3F4F820F931FFC01408189813B
:100C0000882F90E002969E01235F3F4F820F931F33
:100C1000FC01808184270E948404482F8981882FC9
:100C200090E001969E01235F3F4F820F931FFC01CE
:100C30008081942F982789858927F801808389816D
:100C4000882F90E0029629A13AA18901080F191F67
:100C50008981882F90E002969E01235F3F4F820F8B
:100C6000931FFC0140818981882F90E003969E01AB
:100C7000235F3F4F820F931FFC01808184270E94D6
:100C80008404482F8981882F90E002969E01235F7B
:100C90003F4F820F931FFC018081942F98278985F5
:100CA0008927F80180838981882F90E0039629A104
:100CB0003AA18901080F191F8981882F90E00396B6
:100CC0009E01235F3F4F820F931FFC01408189816A
:100CD000882F90E09E01235F3F4F820F931FFC01FE
:100CE000808184270E948404482F8981882F90E086
:100CF00003969E01235F3F4F820F931FFC0180816B
:100D0000942F982789858927F801808389818C5FB2
:100D100089838981803108F4FECE19821FC08D8DB0
:100D20009E8D9C012F5F3F4F3E8F2D8FFC01608178
:100D30008981882F90E029A13AA1820F931F2981F0
:100D4000222F30E049A15AA1240F351FF90120813B
:100D50002627FC01208389818F5F898389818031E7
:100D6000F0F28A818F5F8A838A818A3008F4A6CE66
:100D7000198221C08981882F90E029A13AA1820F90
:100D8000931F2981222F30E049A15AA1240F351F3A
:100D9000F9012081222F30E028593E4F3B872A87D6
:100DA0002A853B85F90124912C872C85FC01208321
:100DB00089818F5F898389818031E0F289A19AA13D
:100DC0000E949C0419821FC08D8D9E8D9C012F5FF7
:100DD0003F4F3E8F2D8FFC0160818981882F90E0ED
:100DE00029A13AA1820F931F2981222F30E049A126
:100DF0005AA1240F351FF90120812627FC012083E9
:100E000089818F5F898389818031F0F20000A29609
:100E10000FB6F894DEBF0FBECDBFDF91CF911F910B
:100E20000F910895CF93DF93CDB7DEB767970FB6D5
:100E3000F894DEBF0FBECDBF9F8B8E8B1B820DC083
:100E40008B81882F90E02E893F89820F931F2B8101
:100E5000FC0120838B818F5F8B838B81803180F3BA
:100E60008E899F8904979A8389831B821DC28981F9
:100E70009A819C012F5F3F4F3A832983FC01808137
:100E8000882F90E088599E4F9D838C838C819D8113
:100E9000FC0184918E838E818D8B89819A819C0146
:100EA0002F5F3F4F3A832983FC018081882F90E098
:100EB00088599E4F98878F838F819885FC018491F4
:100EC000898789858A8B89819A819C012F5F3F4F11
:100ED0003A832983FC018081882F90E088599E4FB6
:100EE0009B878A878A859B85FC0184918C878C856A
:100EF0008B8B89819A819C012F5F3F4F3A83298395
:100F0000FC018081882F90E088599E4F9E878D87B5
:100F10008D859E85FC0184918F878F858C8B8B813D
:100F2000883078F48A89482F8B81282F30E081E03F
:100F300090E002C0880F991F2A95E2F784278A8BD8
:100F40000BC08B81883019F48BE18A8B05C08B81B3
:100F5000893011F486E38A8B8E899F894097998B1B
:100F6000888B8E899F899C012F5F3F4F3F8B2E8BF3
:100F70006A8928893989A9014F5F5F4F598B488B4E
:100F8000F90120812627FC0120838E899F899C01FD
:100F90002F5F3F4F3F8B2E8B6B8928893989A901A1
:100FA0004F5F5F4F598B488BF90120812627FC0149
:100FB00020838E899F899C012F5F3F4F3F8B2E8B13
:100FC0006C8928893989A9014F5F5F4F598B488BFC
:100FD000F90120812627FC0120838E899F899C01AD
:100FE0002F5F3F4F3F8B2E8B6D8928893989A9014F
:100FF0004F5F5F4F598B488BF90120812627FC01F9
:1010000020838E899F899C012F5F3F4F3F8B2E8BC2
:1010100029813A81A9014F5F5F4F5A834983F901C2
:10102000608128893989A9014F5F5F4F598B488BAF
:10103000F90120812627FC0120838E899F899C014C
:101040002F5F3F4F3F8B2E8B29813A81A9014F5F44
:101050005F4F5A834983F901608128893989A90141
:101060004F5F5F4F598B488BF90120812627FC0188
:1010700020838E899F899C012F5F3F4F3F8B2E8B52
:1010800029813A81A9014F5F5F4F5A834983F90152
:10109000608128893989A9014F5F5F4F598B488B3F
:1010A000F90120812627FC0120838E899F899C01DC
:1010B0002F5F3F4F3F8B2E8B29813A81A9014F5FD4
:1010C0005F4F5A834983F901608128893989A901D1
:1010D0004F5F5F4F598B488BF90120812627FC0118
:1010E00020838E899F899C012F5F3F4F3F8B2E8BE2
:1010F00029813A81A9014F5F5F4F5A834983F901E2
:10110000608128893989A9014F5F5F4F598B488BCE
:10111000F90120812627FC0120838E899F899C016B
:101120002F5F3F4F3F8B2E8B29813A81A9014F5F63
:101130005F4F5A834983F901608128893989A90160
:101140004F5F5F4F598B488BF90120812627FC01A7
:1011500020838E899F899C012F5F3F4F3F8B2E8B71
:1011600029813A81A9014F5F5F4F5A834983F90171
:10117000608128893989A9014F5F5F4F598B488B5E
:10118000F90120812627FC0120838E899F899C01FB
:101190002F5F3F4F3F8B2E8B29813A81A9014F5FF3
:1011A0005F4F5A834983F901608128893989A901F0
:1011B0004F5F5F4F598B488BF90120812627FC0137
:1011C00020838E899F899C012F5F3F4F3F8B2E8B01
:1011D00029813A81A9014F5F5F4F5A834983F90101
:1011E000608128893989A9014F5F5F4F598B488BEE
:1011F000F90120812627FC0120838E899F899C018B
:101200002F5F3F4F3F8B2E8B29813A81A9014F5F82
:101210005F4F5A834983F901608128893989A9017F
:101220004F5F5F4F598B488BF90120812627FC01C6
:1012300020838E899F899C012F5F3F4F3F8B2E8B90
:1012400029813A81A9014F5F5F4F5A834983F90190
:10125000608128893989A9014F5F5F4F598B488B7D
:10126000F90120812627FC0120838E899F899C011A
:101270002F5F3F4F3F8B2E8B29813A81A9014F5F12
:101280005F4F5A834983F901608128893989A9010F
:101290004F5F5F4F598B488BF90120812627FC0156
:1012A00020838B818F5F8B838B818A3008F4DFCD25
:1012B000000067960FB6F894DEBF0FBECDBFDF917A
:1012C000CF910895CF93DF93CDB7DEB7CD5CD10931
:1012D0000FB6F894DEBF0FBECDBF9E0126533F4F21
:1012E000F90191838083CE0184539F4FFC01718368
:1012F000608388E792E09B838A83CE014A960E94AE
:101300001207AE01465F5F4F2A813B81CE014A96AC
:10131000B9010E941F0519821CC08981882F90E0A5
:101320009E01265F3F4F820F931FFC012081898120
:10133000882F90E088599D4F9D838C838C819D815F
:10134000FC0184918E838E81281739F489818F5F07
:1013500089838981803108F301C00000AE01465FB6
:101360005F4F9E01265F3F4FCE014A96B9010E9412
:10137000EB0119821CC08981882F90E09E01265FB5
:101380003F4F820F931FFC0120818981882F90E0BD
:1013900088589D4F98878F838F819885FC01849111
:1013A00089878985281739F489818F5F89838981A5
:1013B000803108F301C0000080E090E0C353DF4FAC
:1013C0000FB6F894DEBF0FBECDBFDF91CF91089569
:0413D000F894FFCFBF
:00000001FF
