:100000000C9434000C9449000C9449000C94490061
:100010000C9449000C9449000C9449000C9449003C
:100020000C9449000C9449000C9449000C9449002C
:100030000C9449000C9449000C9449000C9449001C
:100040000C9449000C9449000C9449000C9449000C
:100050000C9449000C9449000C9449000C944900FC
:100060000C9449000C94490011241FBECFEFD8E036
:10007000DEBFCDBF13E0A0E0B1E0EEE6FCE002C0E1
:1000800005900D92A032B107D9F70E94BF050C94DC
:1000900035060C940000CF93DF931F92CDB7DEB7E7
:1000A0008983898188234CF48981882F90E0880F87
:1000B000991F982F8BE1892702C08981880F0F90A3
:1000C000DF91CF910895CF93DF9300D01F92CDB7EA
:1000D000DEB79B838A838A819B81FC018585898326
:1000E0008A819B810D962A813B81F9012185FC0142
:1000F00020838A819B8109962A813B81F901258190
:10010000FC0120838A819B8105962A813B81F9012C
:100110002181FC0120838A819B8101962981FC0138
:1001200020838A819B81FC01868589838A819B81CA
:100130000E962A813B81F9012681FC0120838A8168
:100140009B8106962981FC0120838A819B81FC0189
:10015000828589838A819B810A962A813B81F90164
:100160002281FC0120838A819B8102962981FC01E6
:1001700020838A819B81FC01838189838A819B8181
:1001800003962A813B81F9012781FC0120838A8122
:100190009B8107962A813B81F9012385FC012083FD
:1001A0008A819B810B962A813B81F9012785FC017D
:1001B00020838A819B810F962981FC01208389817C
:1001C0000F900F900F90DF91CF9108958F929F9293
:1001D000AF92BF92CF92DF92EF92FF920F931F9355
:1001E000CF93DF93CDB7DEB760970FB6F894DEBF3D
:1001F0000FBECDBF6C017A0180EAC80ED11C10E0A1
:1002000014C0812F90E08E0D9F1D212F30E0260F0E
:10021000371FF9014081212F30E02C0D3D1DF901E0
:1002200020812427FC0120831F5F103150F3F0E16F
:10023000CF1AD108C7010E94630010E013C0812FBC
:1002400090E08E0D9F1D212F30E02E0D3F1DF901F6
:100250002081222F30E020503F4FF9012081FC0106
:1002600020831F5F103158F30F2EFAE09F2EF02DE0
:1002700091C110E017C0812F90E09E012F5F3F4F8A
:10028000820F931F212F30E02E0D3F1DF901408179
:10029000212F30E02C0D3D1DF90120812427FC0188
:1002A00020831F5F103138F310E054C1812F90E09C
:1002B0009E012F5F3F4F820F931FFC014081812FD2
:1002C00090E001969E012F5F3F4F820F931FFC012C
:1002D00080814827812F90E002969E012F5F3F4F3B
:1002E000820F931FFC0180814827812F90E00396A5
:1002F0009E012F5F3F4F820F931FFC018081042FCF
:100300000827812F90E05701A80EB91E812F90E099
:100310009E012F5F3F4F820F931FFC018081882E2B
:100320008026812F90E09E012F5F3F4F820F931F09
:10033000FC014081812F90E001969E012F5F3F4F8D
:10034000820F931FFC01808184270E944B00882527
:10035000F5018083812F90E001965701A80EB91E08
:10036000812F90E001969E012F5F3F4F820F931FD8
:10037000FC018081882E8026812F90E001969E01CD
:100380002F5F3F4F820F931FFC014081812F90E030
:1003900002969E012F5F3F4F820F931FFC018081C9
:1003A00084270E944B008825F5018083812F90E0EF
:1003B00002965701A80EB91E812F90E002969E0169
:1003C0002F5F3F4F820F931FFC018081882E802674
:1003D000812F90E002969E012F5F3F4F820F931F67
:1003E000FC014081812F90E003969E012F5F3F4FDB
:1003F000820F931FFC01808184270E944B00882577
:10040000F5018083812F90E003965701A80EB91E55
:10041000812F90E003969E012F5F3F4F820F931F25
:10042000FC0180810827812F90E003969E012F5FB9
:100430003F4F820F931FFC014081812F90E09E016E
:100440002F5F3F4F820F931FFC01808184270E9402
:100450004B008027F5018083812F90E09E012F5F64
:100460003F4F820F931FFC014081812F90E0029645
:100470009E012F5F3F4F820F931FFC0180818427D5
:100480000E944B000E944B00A82E812F90E0019605
:100490009E012F5F3F4F820F931FFC014081812FF0
:1004A00090E003969E012F5F3F4F820F931FFC0148
:1004B000808184270E944B000E944B00B82E8A2D19
:1004C0008B250E944B00082F812F90E08E0D9F1DE1
:1004D000212F30E02E0D3F1DF9013081202F2A25DC
:1004E0002327FC012083812F90E001968E0D9F1D14
:1004F000212F30E02F5F3F4F2E0D3F1DF90130813E
:10050000202F2B252327FC012083812F90E00296AA
:100510008E0D9F1D212F30E02E5F3F4F2E0D3F1D72
:10052000F9013081202F2A252327FC012083812FE8
:1005300090E003968E0D9F1D212F30E02D5F3F4FE1
:100540002E0D3F1DF9013081202F2B252327FC0183
:1005500020831C5F103108F4A9CEC7010E946300FC
:1005600010E013C0812F90E08E0D9F1D212F30E0F1
:100570002E0D3F1DF9012081222F30E020503F4FEA
:10058000F9012081FC0120831F5F103158F3F0E155
:10059000CF1AD1089A94992009F06BCE10E014C0BC
:1005A000812F90E08E0D9F1D212F30E02E0D3F1DDD
:1005B000F9014081212F30E02C0D3D1DF9012081F2
:1005C0002427FC0120831F5F103150F30000609648
:1005D0000FB6F894DEBF0FBECDBFDF91CF911F9154
:1005E0000F91FF90EF90DF90CF90BF90AF909F90D2
:1005F0008F900895CF93DF931F92CDB7DEB7898395
:10060000898188234CF48981882F90E0880F991F75
:10061000982F8BE1892702C08981880F0F90DF9185
:10062000CF9108951F93CF93DF93CDB7DEB7FC0131
:1006300011819C012F5F3F4FFC014581F9014083EF
:100640009C012B5F3F4FFC014185F90140839C01D8
:10065000275F3F4FFC014585F90140839C01235FE3
:100660003F4FF9011083FC0112819C012E5F3F4F27
:10067000FC014285F90140839C01265F3F4FF9014F
:100680001083FC0116819C012A5F3F4FFC014685C7
:10069000F90140839C01225F3F4FF9011083FC0167
:1006A00017859C01215F3F4FFC014385F901408381
:1006B0009C01255F3F4FFC014781F90140839C016C
:1006C000295F3F4FFC014381F90140830396FC0100
:1006D00010830000DF91CF911F9108959F92AF92F8
:1006E000BF92CF92DF92EF92FF920F931F93CF931F
:1006F000DF93CDB7DEB760970FB6F894DEBF0FBEBD
:10070000CDBF6C017A0110E016C0812F90E09701F7
:10071000280F391F812F90E0860F971FFC01408121
:10072000C6016C01FFEFCF1ADF0AFC01808184272C
:10073000F90180831F5F103140F30F2EFAE09F2EE6
:10074000F02D14C110E016C0812F90E09E012F5FA4
:100750003F4F820F931F212F30E02E0D3F1DF901D7
:100760002081222F30E020503E4FF9012081FC01F2
:1007700020831F5F103140F3CE0101960E941203C7
:1007800010E0D8C0812F90E09E012F5F3F4F820F75
:10079000931FFC014081812F90E001969E012F5F05
:1007A0003F4F820F931FFC0180814827812F90E0EB
:1007B00002969E012F5F3F4F820F931FFC018081A5
:1007C0004827812F90E003969E012F5F3F4F820FB5
:1007D000931FFC018081042F0827812F90E057018F
:1007E000A80EB91E812F90E09E012F5F3F4F820F10
:1007F000931FFC014081812F90E001969E012F5FA5
:100800003F4F820F931FFC01808184270E94FA02D0
:10081000482F812F90E09E012F5F3F4F820F931F43
:10082000FC01808184278027F5018083812F90E05F
:1008300001965701A80EB91E812F90E001969E01E6
:100840002F5F3F4F820F931FFC014081812F90E06B
:1008500002969E012F5F3F4F820F931FFC01808104
:1008600084270E94FA02482F812F90E001969E0172
:100870002F5F3F4F820F931FFC01808184278027C9
:10088000F5018083812F90E002965701A80EB91ED2
:10089000812F90E002969E012F5F3F4F820F931FA2
:1008A000FC014081812F90E003969E012F5F3F4F16
:1008B000820F931FFC01808184270E94FA02482F37
:1008C000812F90E002969E012F5F3F4F820F931F72
:1008D000FC01808184278027F5018083812F90E0AF
:1008E00003965701A80EB91E812F90E003969E0132
:1008F0002F5F3F4F820F931FFC014081812F90E0BB
:100900009E012F5F3F4F820F931FFC018081842740
:100910000E94FA02482F812F90E003969E012F5FDC
:100920003F4F820F931FFC01808184278027F501B0
:1009300080831C5F103108F425CF10E015C0C6017C
:100940006C01FFEFCF1ADF0AFC014081812F90E09C
:100950008E0D9F1D212F30E02E0D3F1DF9012081AE
:100960002427FC0120831F5F103148F39A949920BB
:1009700009F0E8CE10E013C0812F90E08E0D9F1D8E
:10098000212F30E02E0D3F1DF9012081222F30E074
:1009900020503E4FF9012081FC0120831F5F103160
:1009A00058F3C7010E94120310E015C0C6016C0184
:1009B000FFEFCF1ADF0AFC014081812F90E08E0DFE
:1009C0009F1D212F30E02E0D3F1DF901208124278E
:1009D000FC0120831F5F103148F3000060960FB6C2
:1009E000F894DEBF0FBECDBFDF91CF911F910F9165
:1009F000FF90EF90DF90CF90BF90AF909F900895C1
:100A0000CF92DF92EF92FF920F931F93CF93DF93DA
:100A100000D000D0CDB7DEB7F12C06C09C01C901D3
:100A20000196F394F901F082FFE0FF15B8F78C010D
:100A300004501109F12C91C0980189010F5F1F4FDB
:100A4000F9012081222F30E020503E4FF901208112
:100A50002C83980189010F5F1F4FF9012081222FFC
:100A600030E020503E4FF90120812983980189010F
:100A70000F5F1F4FF9012081222F30E020503E4FA1
:100A8000F90120812A83980189010F5F1F4FF90125
:100A90002081222F30E020503E4FF90120812B830E
:100AA000F7E0FF1570F02981622F4F2D50E021E013
:100AB00030E002C0220F331F4A95E2F72627298330
:100AC0000FC028E0F21629F439812BE1232729836E
:100AD00007C079E0F71621F4398126E3232729831B
:100AE0006C01E0E1CE1AD108EE24EA9416C09C0114
:100AF000C90101964E2D50E0BE016F5F7F4F460F3A
:100B0000571FFA016081A6016A01FFEFCF1ADF0AC1
:100B1000FA0140814627F9014083E394F3E0FE1592
:100B200030F70F2EFDE0EF2EF02D13C09C01C90110
:100B30000196A8018A010F5F1F4FFA016081A6018B
:100B40006A01FFEFCF1ADF0AFA0140814627F90157
:100B50004083EA94EE2051F7F394F9E0FF1508F092
:100B60006BCF00000F900F900F900F90DF91CF91FF
:100B70001F910F91FF90EF90DF90CF900895CF934A
:100B8000DF93CDB7DEB7C55CD1090FB6F894DEBFF1
:100B90000FBECDBF9E012E533F4FF901918380833D
:100BA000CE018C539F4FFC0171836083CE0142962E
:100BB0000E9400059E012E5F3F4FCE014296A90183
:100BC00060E073E00E946E03198216C08981882F4D
:100BD00090E09E012E5F3F4F820F931FFC0120810A
:100BE0008981882F90E0805F9C4FFC0180812817CD
:100BF00039F489818F5F89838981803138F301C01D
:100C00000000AE014E5F5F4F9E012E5F3F4FCE0151
:100C10004296B9010E94E600198216C08981882F88
:100C200090E09E012E5F3F4F820F931FFC012081B9
:100C30008981882F90E080509D4FFC01808128178A
:100C400039F489818F5F89838981803138F301C0CC
:100C5000000080E090E0CB53DF4F0FB6F894DEBF8A
:0E0C60000FBECDBFDF91CF910895F894FFCF66
:100C6E0052096AD53036A538BF40A39E81F3D7FB13
:100C7E007CE339829B2FFF87348E4344C4DEE9CB5D
:100C8E00547B9432A6C2233DEE4C950B42FAC34ED2
:100C9E00082EA16628D924B2765BA2496D8BD12588
:100CAE0072F8F66486689816D4A45CCC5D65B6922C
:100CBE006C704850FDEDB9DA5E154657A78D9D84D0
:100CCE0090D8AB008CBCD30AF7E45805B8B34506F0
:100CDE00D02C1E8FCA3F0F02C1AFBD0301138A6B0A
:100CEE003A9111414F67DCEA97F2CFCEF0B4E6733A
:100CFE0096AC7422E7AD3585E2F937E81C75DF6EE8
:100D0E0047F11A711D29C5896FB7620EAA18BE1B4D
:100D1E00FC563E4BC6D279209ADBC0FE78CD5AF4F3
:100D2E001FDDA8338807C731B11210592780EC5F39
:100D3E0060517FA919B54A0D2DE57A9F93C99CEF95
:100D4E00A0E03B4DAE2AF5B0C8EBBB3C8353996196
:100D5E00172B047EBA77D626E169146355210C7DD4
:100D6E00637C777BF26B6FC53001672BFED7AB765A
:100D7E00CA82C97DFA5947F0ADD4A2AF9CA472C005
:100D8E00B7FD9326363FF7CC34A5E5F171D8311572
:100D9E0004C723C31896059A071280E2EB27B27593
:100DAE0009832C1A1B6E5AA0523BD6B329E32F840B
:100DBE0053D100ED20FCB15B6ACBBE394A4C58CF03
:100DCE00D0EFAAFB434D338545F9027F503C9FA8D7
:100DDE0051A3408F929D38F5BCB6DA2110FFF3D2A5
:100DEE00CD0C13EC5F974417C4A77E3D645D197359
:100DFE0060814FDC222A908846EEB814DE5E0BDB53
:100E0E00E0323A0A4906245CC2D3AC629195E47989
:100E1E00E7C8376D8DD54EA96C56F4EA657AAE08E3
:100E2E00BA78252E1CA6B4C6E8DD741F4BBD8B8A7E
:100E3E00703EB5664803F60E613557B986C11D9EE4
:100E4E00E1F8981169D98E949B1E87E9CE5528DF5B
:100E5E008CA1890DBFE6426841992D0FB054BB1687
:100E6E0000112233445566778899AABBCCDDEEFF7C
:100E7E0069C4E0D86A7B0430D8CDB78070B4C55A47
:00000001FF
